{
  "contractName": "ReadWrite",
  "abi": [
    {
      "constant": true,
      "inputs": [
        {
          "name": "",
          "type": "uint256"
        }
      ],
      "name": "users",
      "outputs": [
        {
          "name": "id",
          "type": "uint256"
        },
        {
          "name": "name",
          "type": "string"
        }
      ],
      "payable": false,
      "stateMutability": "view",
      "type": "function"
    },
    {
      "constant": true,
      "inputs": [],
      "name": "nextId",
      "outputs": [
        {
          "name": "",
          "type": "uint256"
        }
      ],
      "payable": false,
      "stateMutability": "view",
      "type": "function"
    },
    {
      "constant": false,
      "inputs": [
        {
          "name": "name",
          "type": "string"
        }
      ],
      "name": "create",
      "outputs": [],
      "payable": false,
      "stateMutability": "nonpayable",
      "type": "function"
    },
    {
      "constant": true,
      "inputs": [
        {
          "name": "id",
          "type": "uint256"
        }
      ],
      "name": "read",
      "outputs": [
        {
          "name": "",
          "type": "uint256"
        },
        {
          "name": "",
          "type": "string"
        }
      ],
      "payable": false,
      "stateMutability": "view",
      "type": "function"
    }
  ],
  "bytecode": "0x608060405234801561001057600080fd5b50610629806100206000396000f3fe60806040526004361061005c576000357c010000000000000000000000000000000000000000000000000000000090048063365b98b21461006157806361b8ce8c1461011c578063b6a46b3b14610147578063ed2e5a971461020f575b600080fd5b34801561006d57600080fd5b5061009a6004803603602081101561008457600080fd5b81019080803590602001909291905050506102ca565b6040518083815260200180602001828103825283818151815260200191508051906020019080838360005b838110156100e05780820151818401526020810190506100c5565b50505050905090810190601f16801561010d5780820380516001836020036101000a031916815260200191505b50935050505060405180910390f35b34801561012857600080fd5b50610131610395565b6040518082815260200191505060405180910390f35b34801561015357600080fd5b5061020d6004803603602081101561016a57600080fd5b810190808035906020019064010000000081111561018757600080fd5b82018360208201111561019957600080fd5b803590602001918460018302840111640100000000831117156101bb57600080fd5b91908080601f016020809104026020016040519081016040528093929190818152602001838380828437600081840152601f19601f82011690508083019250505050505050919291929050505061039b565b005b34801561021b57600080fd5b506102486004803603602081101561023257600080fd5b810190808035906020019092919050505061041e565b6040518083815260200180602001828103825283818151815260200191508051906020019080838360005b8381101561028e578082015181840152602081019050610273565b50505050905090810190601f1680156102bb5780820380516001836020036101000a031916815260200191505b50935050505060405180910390f35b6000818154811015156102d957fe5b9060005260206000209060020201600091509050806000015490806001018054600181600116156101000203166002900480601f01602080910402602001604051908101604052809291908181526020018280546001816001161561010002031660029004801561038b5780601f106103605761010080835404028352916020019161038b565b820191906000526020600020905b81548152906001019060200180831161036e57829003601f168201915b5050505050905082565b60015481565b6000604080519081016040528060015481526020018381525090806001815401808255809150509060018203906000526020600020906002020160009091929091909150600082015181600001556020820151816001019080519060200190610405929190610558565b5050505060016000815480929190600101919050555050565b6000606060008090505b600080549050811015610551578360008281548110151561044557fe5b90600052602060002090600202016000015414156105445760008181548110151561046c57fe5b90600052602060002090600202016000015460008281548110151561048d57fe5b9060005260206000209060020201600101808054600181600116156101000203166002900480601f0160208091040260200160405190810160405280929190818152602001828054600181600116156101000203166002900480156105335780601f1061050857610100808354040283529160200191610533565b820191906000526020600020905b81548152906001019060200180831161051657829003601f168201915b505050505090509250925050610553565b8080600101915050610428565b505b915091565b828054600181600116156101000203166002900490600052602060002090601f016020900481019282601f1061059957805160ff19168380011785556105c7565b828001600101855582156105c7579182015b828111156105c65782518255916020019190600101906105ab565b5b5090506105d491906105d8565b5090565b6105fa91905b808211156105f65760008160009055506001016105de565b5090565b9056fea165627a7a7230582079b24583ee16194db97cbb7e52e557e0140c260be2e8e5eaadd6bbd15807b43b0029",
  "source": "// SPDX-License-Identifier: MIT\npragma solidity >=0.4.22 <0.9.0;\n\ncontract ReadWrite {\n  struct User {\n    uint id;\n    string name;\n  }\n  User[] public users;\n  uint public nextId;\n\n  function create(string memory name) public {\n    users.push(User(nextId, name));\n    nextId++;\n  }\n\n  function read(uint id) view public returns(uint, string memory) {\n    for(uint i = 0; i < users.length; i++) {\n      if(users[i].id == id) {\n        return(users[i].id, users[i].name);\n      }\n    }\n  }\n}\n",
  "sourcePath": "/home/ruban/Documents/Solidity Learning/solidity-learning/contracts/ReadWrite.sol",
  "compiler": {
    "name": "solc",
    "version": "0.5.1+commit.c8a2cb62.Linux.g++"
  },
  "schemaVersion": "3.4.3",
  "updatedAt": "2021-11-14T09:35:49.131Z",
  "networkType": "ethereum",
  "devdoc": {
    "methods": {}
  },
  "userdoc": {
    "methods": {}
  }
}